:020000040800F2
:1000000000000120911D0008851500088B150008CF
:1000100091150008971500089D15000800000000C4
:10002000000000000000000000000000417E000809
:10003000A31500080000000021800008AF1500088B
:10004000D91D0008D91D0008D91D0008D91D0008B8
:10005000D91D0008D91D0008D91D0008D91D0008A8
:10006000D91D0008D91D0008D91D0008D91D000898
:10007000D91D0008D91D0008D91D0008D91D000888
:10008000D91D0008D91D0008D91D0008D91D000878
:10009000D91D0008D91D0008D91D0008C915000880
:1000A000D91D0008D91D0008D91D0008D91D000858
:1000B000D91D0008D91D0008D9150008D91D000850
:1000C000D91D0008D91D0008D91D0008D91D000838
:1000D000D91D000819160008D91D0008D91D0008EF
:1000E000D91D0008D91D0008D91D0008D91D000818
:1000F000D91D0008D91D0008D91D0008D91D000808
:10010000D91D0008D91D000871160008D91D000866
:10011000D91D0008D91D0008851600089916000889
:10012000D91D0008D91D0008D91D0008D91D0008D7
:1001300000000000000000000000000000000000BF
:1001400000000000000000000000000000000000AF
:10015000000000000000000000000000000000009F
:10016000000000000000000000000000000000008F
:10017000000000000000000000000000000000007F
:10018000000000000000000000000000000000006F
:10019000000000000000000000000000000000005F
:1001A000000000000000000000000000000000004F
:1001B000000000000000000000000000000000003F
:1001C000000000000000000000000000000000002F
:1001D000000000000000000000000000000000001F
:0401E0005FF8E0F1F3
:1001F00010B5054C237833B9044B13B10448AFF361
:1002000000800123237010BD1803002000000000AF
:1002100024F5000808B5034B1BB103490348AFF3AD
:10022000008008BD000000001C03002024F5000829
:10023000034613F8012B002AFBD1181A0138704726
:1002400081F0004102E000BF83F0004330B54FEA87
:1002500041044FEA430594EA050F08BF90EA020FF4
:100260001FBF54EA000C55EA020C7FEA645C7FEA87
:10027000655C00F0E2804FEA5454D4EB5555B8BFAA
:100280006D420CDD2C4480EA020281EA030382EA1B
:10029000000083EA010180EA020281EA0303362DAD
:1002A00088BF30BD11F0004F4FEA01314FF4801C80
:1002B0004CEA113102D0404261EB410113F0004F92
:1002C0004FEA03334CEA133302D0524263EB430349
:1002D00094EA050F00F0A780A4F10104D5F1200EE7
:1002E0000DDB02FA0EFC22FA05F2801841F1000142
:1002F00003FA0EF2801843FA05F359410EE0A5F116
:1003000020050EF1200E012A03FA0EFC28BF4CF046
:10031000020C43FA05F3C01851EBE37101F00045FC
:1003200007D54FF0000EDCF1000C7EEB00006EEB09
:100330000101B1F5801F1BD3B1F5001F0CD3490893
:100340005FEA30004FEA3C0C04F101044FEA4452EA
:1003500012F5800F80F09A80BCF1004F08BF5FEA71
:10036000500C50F1000041EB045141EA050130BD51
:100370005FEA4C0C404141EB0101013C28BFB1F563
:10038000801FE9D291F0000F04BF01460020B1FAAE
:1003900081F308BF2033A3F10B03B3F120020CDA81
:1003A0000C3208DD02F1140CC2F10C0201FA0CF05F
:1003B00021FA02F10CE002F11402D8BFC2F1200CC4
:1003C00001FA02F120FA0CFCDCBF41EA0C0190407A
:1003D000E41AA2BF01EB0451294330BD6FEA0404C3
:1003E0001F3C1CDA0C340EDC04F11404C4F12002AE
:1003F00020FA04F001FA02F340EA030021FA04F3C0
:1004000045EA030130BDC4F10C04C4F1200220FA16
:1004100002F001FA04F340EA0300294630BD21FA54
:1004200004F0294630BD94F0000F83F4801306BF1A
:1004300081F480110134013D4EE77FEA645C18BF0E
:100440007FEA655C29D094EA050F08BF90EA020FA5
:1004500005D054EA000C04BF1946104630BD91EA9D
:10046000030F1EBF0021002030BD5FEA545C05D1A0
:100470004000494128BF41F0004130BD14F58004DF
:100480003CBF01F5801130BD01F0004545F0FE4153
:1004900041F470014FF0000030BD7FEA645C1ABF88
:1004A000194610467FEA655C1CBF0B46024650EABF
:1004B000013406BF52EA033591EA030F41F40021EB
:1004C00030BD00BF90F0000F04BF0021704730B571
:1004D0004FF4806404F132044FF000054FF0000146
:1004E00050E700BF90F0000F04BF0021704730B507
:1004F0004FF4806404F1320410F0004548BF4042DC
:100500004FF000013EE700BF42004FEAE2014FEA30
:1005100031014FEA02701FBF12F07F4393F07F4F0B
:1005200081F06051704732F07F4208BF704793F00E
:100530007F4F04BF41F40021704730B54FF4607421
:1005400001F0004521F000411CE700BF50EA010224
:1005500008BF704730B54FF000050AE050EA0102CD
:1005600008BF704730B511F0004502D5404261EB3D
:1005700041014FF4806404F132045FEA915C3FF47E
:10058000D8AE4FF003025FEADC0C18BF03325FEA1B
:10059000DC0C18BF033202EBDC02C2F1200300FACC
:1005A00003FC20FA02F001FA03FE40EA0E0021FAF1
:1005B00002F11444BDE600BF70B54FF0FF0C4CF4DF
:1005C000E06C1CEA11541DBF1CEA135594EA0C0F91
:1005D00095EA0C0F00F0DEF82C4481EA030621EACC
:1005E0004C5123EA4C5350EA013518BF52EA033507
:1005F00041F4801143F4801338D0A0FB02CE4FF0B9
:100600000005E1FB02E506F00042E0FB03E54FF0E8
:100610000006E1FB03569CF0000F18BF4EF0010EE0
:10062000A4F1FF04B6F5007F64F5407404D25FEADC
:100630004E0E6D4146EB060642EAC62141EA55518F
:100640004FEAC52040EA5E504FEACE2EB4F1FD0CD1
:1006500088BFBCF5E06F1ED8BEF1004F08BF5FEA4F
:10066000500E50F1000041EB045170BD06F0004601
:1006700046EA010140EA020081EA0301B4EB5C04AE
:10068000C2BFD4EB0C0541EA045170BD41F48011A6
:100690004FF0000E013C00F3AB8014F1360FDEBFCB
:1006A000002001F0004170BDC4F10004203C35DAA7
:1006B0000C341BDC04F11404C4F1200500FA05F32A
:1006C00020FA04F001FA05F240EA020001F00042CB
:1006D00021F0004110EBD37021FA04F642EB060141
:1006E0005EEA430E08BF20EAD37070BDC4F10C046B
:1006F000C4F1200500FA04F320FA05F001FA04F22F
:1007000040EA020001F0004110EBD37041F100011A
:100710005EEA430E08BF20EAD37070BDC4F1200525
:1007200000FA05F24EEA020E20FA04F301FA05F28D
:1007300043EA020321FA04F001F0004121FA04F235
:1007400020EA020000EBD3705EEA430E08BF20EA05
:10075000D37070BD94F0000F0FD101F0004640003F
:1007600041EB010111F4801F08BF013CF7D041EAC1
:10077000060195F0000F18BF704703F000465200C5
:1007800043EB030313F4801F08BF013DF7D043EA96
:100790000603704794EA0C0F0CEA135518BF95EA4C
:1007A0000C0F0CD050EA410618BF52EA4306D1D1D3
:1007B00081EA030101F000414FF0000070BD50EAF2
:1007C000410606BF1046194652EA430619D094EA7C
:1007D0000C0F02D150EA013613D195EA0C0F05D166
:1007E00052EA03361CBF104619460AD181EA0301BA
:1007F00001F0004141F0FE4141F470014FF0000072
:1008000070BD41F0FE4141F4780170BD70B54FF00C
:10081000FF0C4CF4E06C1CEA11541DBF1CEA13558C
:1008200094EA0C0F95EA0C0F00F0A7F8A4EB05046E
:1008300081EA030E52EA03354FEA013100F0888065
:100840004FEA03334FF0805545EA131343EA12632E
:100850004FEA022245EA111545EA10654FEA0026E3
:100860000EF000419D4208BF964244F1FD0404F59C
:10087000407402D25B084FEA3202B61A65EB0305F8
:100880005B084FEA32024FF480104FF4002CB6EBB5
:10089000020E75EB030E22BFB61A754640EA0C0035
:1008A0005B084FEA3202B6EB020E75EB030E22BF75
:1008B000B61A754640EA5C005B084FEA3202B6EBB6
:1008C000020E75EB030E22BFB61A754640EA9C0075
:1008D0005B084FEA3202B6EB020E75EB030E22BF45
:1008E000B61A754640EADC0055EA060E18D04FEA03
:1008F000051545EA16754FEA06164FEAC30343EAA3
:1009000052734FEAC2025FEA1C1CC0D111F4801F6F
:100910000BD141EA00014FF000004FF0004CB6E768
:1009200011F4801F04BF01430020B4F1FD0C88BF07
:10093000BCF5E06F3FF6AFAEB5EB030C04BFB6EB12
:10094000020C5FEA500C50F1000041EB045170BD05
:100950000EF0004E4EEA113114EB5C04C2BFD4EB32
:100960000C0541EA045170BD41F480114FF0000EB6
:10097000013C90E645EA060E8DE60CEA135594EA32
:100980000C0F08BF95EA0C0F3FF43BAF94EA0C0F35
:100990000AD150EA01347FF434AF95EA0C0F7FF4AA
:1009A00025AF104619462CE795EA0C0F06D152EAFE
:1009B00003353FF4FDAE1046194622E750EA4106E2
:1009C00018BF52EA43067FF4C5AE50EA41047FF4F3
:1009D0000DAF52EA43057FF4EBAE12E74FF0FF3C58
:1009E00006E000BF4FF0010C02E000BF4FF0010C29
:1009F0004DF804CD4FEA410C7FEA6C5C4FEA430CA2
:100A000018BF7FEA6C5C1BD001B050EA410C0CBFF0
:100A100052EA430C91EA030F02BF90EA020F002052
:100A2000704710F1000F91EA030F58BF994208BFB9
:100A300090422CBFD8176FEAE37040F00100704776
:100A40004FEA410C7FEA6C5C02D150EA013C07D1CD
:100A50004FEA430C7FEA6C5CD6D152EA033CD3D018
:100A60005DF8040B704700BF8446104662468C4612
:100A70001946634600E000BF01B5FFF7B7FF002845
:100A800048BF10F1000F01BD4DF808EDFFF7F4FF6E
:100A90000CBF012000205DF808FB00BF4DF808EDF9
:100AA000FFF7EAFF34BF012000205DF808FB00BF1C
:100AB0004DF808EDFFF7E0FF94BF012000205DF83E
:100AC00008FB00BF4DF808EDFFF7CEFF94BF0120F3
:100AD00000205DF808FB00BF4DF808EDFFF7C4FFEC
:100AE00034BF012000205DF808FB00BF4FEA410C35
:100AF0007FEA6C5C02D150EA013C0AD14FEA430C18
:100B00007FEA6C5C02D152EA033C02D14FF0000054
:100B100070474FF0010070474FEA410212F5001292
:100B200015D211D56FF47873B3EB625212D94FEA34
:100B3000C12343F0004343EA505311F0004F23FA1E
:100B400002F018BF404270474FF00000704750EA73
:100B5000013005D111F0004008BF6FF00040704730
:100B60004FF00000704700BF4A0011D212F500128A
:100B700011D20DD56FF47873B3EB62520ED44FEAF5
:100B8000C12343F0004343EA505323FA02F0704775
:100B90004FF00000704750EA013002D14FF0FF30B3
:100BA00070474FF00000704780B582B000AF034639
:100BB000FB71042001F082FAFB79034A136000BF45
:100BC0000837BD4680BD00BF3403002080B489B023
:100BD00000AF78600023BB61194B5B687B61194BE8
:100BE0001A687B6802FB03F33B61154B9B68FB6152
:100BF000134B9B68FB60FA68FB699A42F8D0FA686D
:100C0000FB699A4206D2FA69FB68D31ABA6913449F
:100C1000BB6107E07A69FB68D21AFB691344BA69C1
:100C20001344BB61FB68FB61BA693B699A4200D21D
:100C3000DEE700BF00BF2437BD4680BC704700BF61
:100C400010E000E03403002080B584B000AF03461C
:100C5000FB800023FB6006E04FF47A70FFF7B6FFDD
:100C6000FB680133FB60FB88FA689A42F4D300BF4B
:100C700000BF1037BD4680BD80B483B000AF0346CF
:100C8000FB800E4B1B78002B0FD10D4B00221A60FE
:100C90000B4B01221A600B4B01221A60074B1B7889
:100CA0000133DAB2054B1A7002E0064B00221A60DB
:100CB00000BF0C37BD4680BC704700BF3803002022
:100CC000988122428C81214280B483B000AF786049
:100CD0007B68054A934202D1044B00221A7000BF80
:100CE0000C37BD4680BC7047D00B00203903002074
:100CF00080B500AF044B1B684FF0FF31184603F07E
:100D000001FF00BF80BD00BF4403002080B500AFDD
:100D1000034B1B68184603F043FF00BF80BD00BFB4
:100D20004403002080B485B000AFF860B9607A60F9
:100D3000FB68064A1A60BB68054A1A607B68802215
:100D40001A6000BF1437BD4680BC70475C030020AA
:100D50002404002080B485B000AFF860B9607A60E8
:100D6000FB68074A1A60BB68064A1A607B684FF442
:100D700080721A6000BF1437BD4680BC704700BF48
:100D800024060020EC060020B0B59CB000AF002384
:100D9000BB660023FB6607F168030121184603F0D8
:100DA00035FF03462C4A13602C4B07F158040FCB38
:100DB00084E80F0007F158030021184603F0C2FF32
:100DC0000346274A13600021264803F0E3FF034649
:100DD000254A1360254803F07DFE0346244A13602C
:100DE000244B07F13C041D460FCD0FC495E80700C6
:100DF00084E8070007F13C030021184603F07DFD5D
:100E000003461D4A13601D4B07F120041D460FCDFC
:100E10000FC495E8070084E8070007F120030021CC
:100E2000184603F06AFD0346154A1360154B3C1D36
:100E30001D460FCD0FC495E8070084E807003B1D51
:100E40000021184603F059FD03460F4A136000BF06
:100E50007037BD46B0BD00BF5803002068F50008DC
:100E600054030020CCF9000840030020D8F9000802
:100E70004403002078F500084803002094F500089A
:100E80004C030020B0F5000850030020B0B58AB034
:100E900000AF78600C4B07F10C041D460FCD0FC45A
:100EA00095E8070084E8070007F10C0300211846C5
:100EB00003F023FD0346054A1360054B1B681846E3
:100EC00005F04EFAE6E700BF94F500084C03002059
:100ED0004803002080B584B000AF78600023FB6039
:100EE00003F0FBFC0346FB60FFF702FF0A480CF02F
:100EF0004DFB0AF0E5FAFFF709FF084B1B680121DB
:100F0000184603F05BFD07F10C034FF47A711846A5
:100F100003F098FFE4E700BFCCF500085003002081
:100F200080B586B000AF786007F10C034FF0FF3258
:100F30000121184603F082FD3B69012BF4D1FFF734
:100F4000D7FE06480CF022FB4FF4FA7003F021FDA7
:100F500003480CF01BFBFFF7D9FEE5E7DCF50008C2
:100F6000F0F5000880B58EB000AF07F11C03002239
:100F70001A605A609A60DA601A615A619A613B4657
:100F800000221A605A609A60DA601A615A619A61A6
:100F9000334B4FF020421A60314B324A5A60304B8B
:100FA00006229A602E4B0022DA602D4B00221A6135
:100FB0002B4B10225A612A4B00229A61284B0022A7
:100FC000DA61274B00221A62254B00225A62244B19
:100FD0004FF480529A62224B0022DA62204B4FF487
:100FE00080421A631E4B00225A631D4B00229A63F3
:100FF0000623FB610F233B621A237B620023BB6243
:101000001023FB6211233B6300237B6303233B60BC
:101010000F237B600623BB600023FB6010233B6132
:1010200011237B610023BB613A4607F11C0319467B
:101030000B4801F07FFF0346002B01D000F065FA5A
:10104000094BDB69084A43F48063D3614820FFF70A
:10105000ABFD07F00DFF00BF3837BD4680BD00BFB8
:10106000EC0A0020040100A00000014080B586B019
:1010700000AF07F1080300221A605A609A60DA6034
:10108000254B1B68002B42D1234B01221A60234BB6
:101090005B69224A43F480735361204B5B6903F41C
:1010A00080737B607B680123BB600223FB600323AA
:1010B0007B6107F108031946194801F05DF941F217
:1010C0000103BB600223FB6003237B6107F108037C
:1010D0001946144801F050F94FF68073BB600223A3
:1010E000FB6003237B6107F1080319460E4801F0FA
:1010F00043F94CF23373BB600223FB6003237B6133
:1011000007F108031946094801F036F900E000BF6D
:101110001837BD4680BD00BF340B002000100240D0
:10112000001C014000200140001801400014014053
:1011300080B582B000AF7860FFF798FF00BF083736
:10114000BD4680BD80B58CB000AF07F12003002202
:101150001A605A609A60DA60784B9B69774A43F06C
:1011600040039361754B9B6903F04003FB61FB698E
:10117000724B9B69714A43F0800393616F4B9B698B
:1011800003F08003BB61BB696C4B9B696B4A43F006
:1011900010039361694B9B6903F010037B617B69CA
:1011A000664B9B69654A43F004039361634B9B69FB
:1011B00003F004033B613B69604B9B695F4A43F06A
:1011C000080393615D4B9B6903F00803FB60FB68B8
:1011D0005A4B9B69594A43F480739361574B9B69FF
:1011E00003F48073BB60BB68544B9B69534A43F064
:1011F00020039361514B9B6903F020037B607B6864
:10120000012220214E4801F04BFA002201214D48D5
:1012100001F046FA012240214B4801F041FA012237
:101220004FF44041494801F03BFA0122382145483A
:1012300001F036FA1C233B6200237B620123BB6270
:1012400007F1200319463E4801F096F820233B623F
:1012500001237B620123BB620323FB6207F12003AE
:101260001946374801F088F8FF233B6200237B6270
:101270000123BB6207F120031946354801F07CF8D1
:1012800001233B6200237B620223BB6207F1200340
:101290001946304801F070F821233B6201237B623C
:1012A0000123BB620323FB6207F120031946254893
:1012B00001F062F84FF480733B62274B7B6202239C
:1012C000BB6207F120031946224801F055F840237C
:1012D0003B6201237B620023BB620223FB6207F1B6
:1012E00020031946184801F047F84FF440433B6289
:1012F00001237B620023BB620223FB6207F1200310
:101300001946124801F038F818233B6201237B622A
:101310000023BB620223FB6207F120031946094840
:1013200001F02AF800220621172000F090FE172075
:1013300000F0A9FE00BF3037BD4680BD001002405E
:1013400000180140000C0140001401400020014041
:1013500000100140000801400000111080B582B06B
:1013600002AF00F03BFD00F08BF8FFF7EBFEFFF75C
:10137000F9FD00F023FC00F0B7FA00F009FB00F0E3
:1013800061FA00F03FFB334B5B6854209847324BC7
:101390004FF478421A60314B0193102300931023CD
:1013A000C82232211E200AF03DF82D4B0193102354
:1013B00000931023C82246211E200AF033F8294B3F
:1013C0000193102300931023C8225A211E200AF0F3
:1013D00029F8254B0193102300931023C8226E2176
:1013E0001E200AF01FF8214B0193102300931023B5
:1013F000C82282211E200AF015F81D4B01931023EC
:1014000000931023C82296211E200AF00BF8194BD6
:101410000193102300931023C822AA211E200AF052
:1014200001F8154B0193102300931023C822D221F9
:101430001E2009F0F7FF114B019310230093102396
:10144000C822E6211E2009F0EDFFFFF79DFC03F006
:101450003DFAFEE7540000201000002004F60008CA
:1014600014F6000820F6000830F600083CF60008E4
:101470004CF600085CF600086CF600087CF60008E4
:1014800080B590B000AF07F118032822002118465C
:101490000BF0E5FA3B1D00221A605A609A60DA6090
:1014A0001A610123BB614FF48033FB6100233B626F
:1014B0000123BB6202237B634FF48033BB634FF491
:1014C000E013FB6307F11803184601F019F903460E
:1014D000002B01D000F019F80F237B600223BB60C2
:1014E0000023FB604FF480633B6100237B613B1D65
:1014F0000221184601F086FB0346002B01D000F0C4
:1015000004F800BF4037BD4680BD80B400AF72B65E
:1015100000BFFEE780B584B000AF184B9B69174A47
:1015200043F001039361154B9B6903F00103BB601A
:10153000BB68124BDB69114A43F08053D3610F4BF8
:10154000DB6903F080537B607B6800220F216FF022
:10155000010000F07CFD0A4B5B68FB60FB6823F038
:10156000E063FB60FB6843F00073FB60044AFB68C8
:10157000536000BF1037BD4680BD00BF0010024061
:101580000000014080B400AFFEE780B400AFFEE78A
:1015900080B400AFFEE780B400AFFEE780B400AFD8
:1015A000FEE780B400AF00BFBD4680BC704780B589
:1015B00000AF00F059FC05F0B5FC0346012B01D04B
:1015C00006F052FD00BF80BD80B500AF4FF48070C3
:1015D00001F07EF800BF80BD80B500AF0D4B1B68E9
:1015E000DB6803F00103012B0AD10A4B1B680022C0
:1015F0005A62084B1B686422DA62064B6422DA6086
:10160000044B1B686FF001021A61024801F0DDFD16
:1016100000BF80BD400B002080B582B000AF00232A
:101620007B60114802F00EFC00237B6002E07B68C7
:1016300001337B600C4802F0CCFD0346202BF6D131
:1016400000237B6002E07B6801337B600122074955
:10165000054802F0C6FB0346002BF4D100BF00BFD3
:101660000837BD4680BD00BF300D00202C0D002086
:1016700080B500AF024801F0A8FD00BF80BD00BFEB
:10168000880B002080B500AF024801F09EFD00BF2E
:1016900080BD00BFD00B002080B500AF044B1B689D
:1016A0000133034A1360034801F08FFD00BF80BD82
:1016B000380B0020180C002080B400AF012318461E
:1016C000BD4680BC704780B582B000AF786039609D
:1016D0000BF094F8034616221A604FF0FF331846B9
:1016E0000837BD4680BD80B582B000AF78604FF04E
:1016F000FF317868FFF7E7FFFEE780B586B000AFFF
:10170000F860B9607A6000237B610AE0AFF3008083
:101710000146BB685A1CBA60CAB21A707B690133B1
:101720007B617A697B689A42F0DB7B6818461837E0
:10173000BD4680BD80B586B000AFF860B9607A6004
:1017400000237B6109E0BB685A1CBA601B7818460D
:1017500000F00CFB7B6901337B617A697B689A42FC
:10176000F1DB7B6818461837BD4680BD80B483B076
:1017700000AF78604FF0FF3318460C37BD4680BC91
:10178000704780B483B000AF786039603B684FF435
:1017900000525A60002318460C37BD4680BC704783
:1017A00080B483B000AF7860012318460C37BD4683
:1017B00080BC704780B485B000AFF860B9607A60D3
:1017C000002318461437BD4680BC704780B586B0EC
:1017D00000AF7860144A154BD31A7B617B693B617B
:1017E000134B1B68002B02D1114B124A1A60104B8D
:1017F0001A687B6813443A699A4207D20AF0FEFFDE
:1018000003460C221A604FF0FF3309E0084B1B68B7
:10181000FB60074B1A687B681344054A1360FB683A
:1018200018461837BD4680BD0000012000040000A6
:101830003C0B0020A81C002080B400AF00BFBD46B8
:1018400080BC704780B586B000AF07F10803002266
:101850001A605A609A60DA603B4600221A605A6049
:101860001F4B204A1A601E4B41F61F425A601C4B08
:1018700000229A601A4B4FF47A72DA60184B0022F9
:101880001A61174B00229A61154801F0A0FB03462C
:10189000002B01D0FFF739FE4FF48053BB6007F1F6
:1018A000080319460E4801F02CFE0346002B01D018
:1018B000FFF72BFE00233B6000237B603B4619466D
:1018C000074802F031F90346002B01D0FFF71DFE57
:1018D000034801F0CBFB00BF1837BD4680BD00BFF9
:1018E000400B00200008004080B586B000AF07F133
:1018F000100300221A605A603B4600221A605A60A8
:101900009A60DA60204B214A1A601F4B05225A6008
:101910001D4B00229A601C4B4FF6FF72DA601A4B87
:1019200000221A61184B80229A61174801F0FEFBD1
:101930000346002B01D0FFF7E8FD00233B610023A5
:101940007B6107F1100319460F4802F0EDF80346DA
:10195000002B01D0FFF7D9FD00233B6001237B6002
:101960000023BB600023FB603B4604221946064867
:1019700001F033FD0346002B01D0FFF7C6FD00BF89
:101980001837BD4680BD00BF880B0020000C00400A
:1019900080B582B000AF3B4600221A605A60174BF8
:1019A000174A1A60154B41F61F425A60134B00222A
:1019B0009A60124B42F21072DA60104B80229A61E8
:1019C0000E4801F004FB0346002B01D0FFF79DFDFC
:1019D00000233B6000237B603B461946074802F02A
:1019E000A3F80346002B01D0FFF78FFD034801F059
:1019F0003DFB00BF0837BD4680BD00BFD00B0020B7
:101A00000010004080B582B000AF3B4600221A6053
:101A10005A60164B164A1A60144B47225A60134BF1
:101A200000229A60114B4FF47A72DA600F4B8022D9
:101A30009A610E4801F0CBFA0346002B01D0FFF764
:101A400064FD00233B6000237B603B46194607484A
:101A500002F06AF80346002B01D0FFF756FD034859
:101A600001F004FB00BF0837BD4680BD180C002004
:101A70000014004080B586B000AF78607B681B68BA
:101A8000274A934214D1274BDB69264A43F00403CB
:101A9000D361244BDB6903F004037B617B69002283
:101AA00005211E2000F0D3FA1E2000F0ECFA32E0EF
:101AB0007B681B681C4A934214D11A4BDB69194A94
:101AC00043F01003D361174BDB6903F010033B6154
:101AD0003B6900220A21362000F0B9FA362000F0D6
:101AE000D2FA18E07B681B68104A934213D10D4B61
:101AF000DB690C4A43F02003D3610A4BDB6903F036
:101B00002003FB60FB6800220621372000F09FFACB
:101B1000372000F0B8FA00BF1837BD4680BD00BFBF
:101B20000008004000100240001000400014004077
:101B300080B588B000AF786007F1100300221A600A
:101B40005A609A60DA607B681B68194A93422BD10D
:101B5000184BDB69174A43F00803D361154BDB6967
:101B600003F00803FB60FB68124B9B69114A43F0CA
:101B7000040393610F4B9B6903F00403BB60BB68D4
:101B800002233B6100237B610023BB6107F110034B
:101B90001946094800F0F0FB00220521322000F030
:101BA00056FA322000F06FFA00BF2037BD4680BDE4
:101BB000000C0040001002400008014080B500AF5A
:101BC000134B144A1A60124B4FF4E1325A60104B17
:101BD00000229A600E4B0022DA600D4B00221A613F
:101BE0000B4B0C225A610A4B00229A61084B0022CF
:101BF000DA61074802F016F80346002B01D0FFF720
:101C000084FC01220449024802F0EBF800BF80BDC9
:101C1000300D0020003801402C0D002080B588B028
:101C200000AF786007F1100300221A605A609A60D2
:101C3000DA607B681B68204A934239D11F4B9B694D
:101C40001E4A43F4804393611C4B9B6903F4804319
:101C5000FB60FB68194B9B69184A43F004039361CE
:101C6000164B9B6903F00403BB60BB684FF4007321
:101C70003B6102237B610323FB6107F110031946DB
:101C80000F4800F079FB4FF480633B6100237B61D8
:101C90000023BB6107F110031946094800F06CFBF3
:101CA00000220A21252000F0D2F9252000F0EBF9CE
:101CB00000BF2037BD4680BD003801400010024003
:101CC0000008014080B483B000AF78607B681B6877
:101CD000224A93423DD1224B1B881BB2002B38DB9A
:101CE0001F4B1B8803F48043002B11D01D4B1B7826
:101CF0000A2B03D01A4B00221A802AE0184B1B88AB
:101D00006FEA43436FEA53439AB2154B1A8020E0BF
:101D1000144B1B780D2B07D1114B1B8843F48043C8
:101D20009AB20F4B1A8014E00D4B1B88C3F30D03BE
:101D30000C4A11780C4AD154094B1B8801339AB2D2
:101D4000074B1A80064B1B88C72B02D9044B002275
:101D50001A8000BF0C37BD4680BC70470038014078
:101D6000280D00202C0D0020600C002080B582B0D2
:101D700000AF7860391D4FF0FF330122034801F0B6
:101D80009EFF7B6818460837BD4680BD300D002099
:101D90000C480D490D4A002302E0D458C4500433C6
:101DA000C4188C42F9D30A4A0A4C002301E013609C
:101DB0000432A242FBD3FFF73FFD0AF01BFEFFF700
:101DC000CDFA704700000020180300201C450108D0
:101DD00018030020A41C0020FEE7000080B500AF1F
:101DE000084B1B68074A43F010031360032000F000
:101DF00023F90F2000F008F8FFF78CFB00231846AA
:101E000080BD00BF0020024080B582B000AF786086
:101E1000124B1A68124B1B7819464FF47A73B3FBB6
:101E2000F1F3B2FBF3F3184600F03BF90346002B45
:101E300001D001230EE07B680F2B0AD800227968BD
:101E40004FF0FF3000F003F9064A7B68136000236F
:101E500000E0012318460837BD4680BD0000002081
:101E6000080000200400002080B400AF054B1B7860
:101E70001A46054B1B681344034A136000BFBD4656
:101E800080BC704708000020740D002080B400AFB3
:101E9000024B1B681846BD4680BC7047740D00207D
:101EA00080B485B000AF78607B6803F00703FB6007
:101EB0000C4BDB68BB60BA684FF6FF031340BB6096
:101EC000FB681A02BB68134343F0BF6343F400335B
:101ED000BB60044ABB68D36000BF1437BD4680BCFA
:101EE000704700BF00ED00E080B400AF044BDB683A
:101EF0001B0A03F007031846BD4680BC704700BFAD
:101F000000ED00E080B483B000AF0346FB7197F9A9
:101F10000730002B0BDBFB7903F01F02064997F912
:101F200007305B09012000FA02F241F8232000BFCC
:101F30000C37BD4680BC704700E100E080B483B040
:101F400000AF03463960FB7197F90730002B0ADBBD
:101F50003B68DAB20C4997F907301201D2B20B4450
:101F600083F800230AE03B68DAB20849FB7903F002
:101F70000F03043B1201D2B20B441A7600BF0C3798
:101F8000BD4680BC704700BF00E100E000ED00E00E
:101F900080B489B000AFF860B9607A60FB6803F084
:101FA0000703FB61FB69C3F10703042B28BF04236C
:101FB000BB61FB690433062B02D9FB69033B00E0DC
:101FC00000237B614FF0FF32BB6902FA03F3DA436F
:101FD000BB681A407B699A404FF0FF317B6901FA78
:101FE00003F3D9437B680B40134318462437BD469F
:101FF00080BC704780B582B000AF78607B68013BE1
:10200000B3F1807F01D301230FE00A4A7B68013BD3
:1020100053600F214FF0FF30FFF790FF054B002278
:102020009A60044B07221A60002318460837BD4601
:1020300080BD00BF10E000E080B582B000AF7860E6
:102040007868FFF72DFF00BF0837BD4680BD80B51B
:1020500086B000AF0346B9607A60FB7300237B61F2
:10206000FFF742FF78617A68B9687869FFF790FFF7
:10207000024697F90F3011461846FFF75FFF00BF81
:102080001837BD4680BD80B582B000AF0346FB71F6
:1020900097F907301846FFF735FF00BF0837BD46F0
:1020A00080BD80B582B000AF78607868FFF7A2FF8E
:1020B000034618460837BD4680BD000080B483B093
:1020C00000AF78607B68042B06D1094B1B68084A77
:1020D00043F00403136005E0054B1B68044A23F03A
:1020E0000403136000BF0C37BD4680BC704700BFBF
:1020F00010E000E080B485B000AF78600023FB738F
:102100007B6893F82130022B08D07B6804229A6305
:102110007B68002283F82020012320E07B681B6875
:102120001A687B681B6822F00E021A607B681B68C5
:102130001A687B681B6822F001021A607B681A6CBF
:102140007B68DB6B012101FA02F25A607B68012295
:1021500083F821207B68002283F82020FB7B18462F
:102160001437BD4680BC704780B584B000AF78603E
:102170000023FB737B6893F82130022B05D07B682A
:1021800004229A630123FB73D6E07B681B681A68FC
:102190007B681B6822F00E021A607B681B681A6855
:1021A0007B681B6822F001021A607B681B681A4674
:1021B000644B9A4258D97B681B68634A93424FD05C
:1021C0007B681B68614A934248D07B681B68604A01
:1021D000934240D07B681B685E4A934238D07B684C
:1021E0001B685D4A934230D07B681B685B4A934210
:1021F00028D07B681B68534A934220D07B681B68B9
:10220000574A934219D07B681B68564A934212D0B2
:102210007B681B68544A93420AD07B681B68534A08
:10222000934202D14FF480531BE04FF4803318E007
:102230004FF4807315E0102313E0012311E04FF0F9
:1022400080730EE04FF480130BE04FF4803308E00E
:102250004FF4805305E04FF4807302E0102300E058
:102260000123434A536057E07B681B68364A934218
:102270004FD07B681B68354A934248D07B681B6807
:10228000334A934240D07B681B68324A934238D02D
:102290007B681B68304A934230D07B681B682F4AAA
:1022A000934228D07B681B68264A934220D07B68E3
:1022B0001B682B4A934219D07B681B68294A9342BA
:1022C00012D07B681B68284A93420AD07B681B683F
:1022D000264A934202D14FF480531BE04FF48033DF
:1022E00018E04FF4807315E0102313E0012311E090
:1022F0004FF080730EE04FF480130BE04FF4803307
:1023000008E04FF4805305E04FF4807302E010239F
:1023100000E00123174A53607B68012283F82120E3
:102320007B68002283F820207B685B6B002B03D046
:102330007B685B6B78689847FB7B18461037BD4617
:1023400080BD00BF80000240080002401C00024027
:102350003000024044000240580002406C0002403D
:10236000080402401C0402403004024044040240BD
:10237000000402400000024080B48BB000AF7860DF
:10238000396000237B6200233B6279E101227B6A92
:1023900002FA03F3FB613B681B68FA691340BB61F7
:1023A000BA69FB699A4240F068813B685B68964A6B
:1023B00093425ED0944A934275D8944A934258D03F
:1023C000924A93426FD8924A934252D0904A934293
:1023D00069D8904A93424CD08E4A934263D88E4A31
:1023E000934246D08C4A93425DD8122B2AD8122BA6
:1023F00059D801A252F823F0732400084D24000894
:102400005F240008A1240008A7240008A7240008CE
:10241000A7240008A7240008A7240008A724000870
:10242000A7240008A7240008A7240008A724000860
:10243000A7240008A7240008A724000855240008A2
:1024400069240008754A934213D02CE03B68DB688E
:102450003B6229E03B68DB6804333B6224E03B6875
:10246000DB6808333B621FE03B68DB680C333B6290
:102470001AE03B689B68002B02D104233B6213E007
:102480003B689B68012B05D108233B627B68FA6996
:102490001A6109E008233B627B68FA695A6103E02C
:1024A00000233B6200E000BFBB69FF2B01D87B68C3
:1024B00001E07B6804337B61BB69FF2B02D87B6A38
:1024C0009B0002E07B6A083B9B003B617B691A68CA
:1024D0000F213B6901FA03F3DB431A40396A3B6978
:1024E00001FA03F31A437B691A603B685B6803F0E7
:1024F0008053002B00F0C180494B9B69484A43F050
:1025000001039361464B9B6903F00103BB60BB6809
:10251000444A7B6A9B08023352F82330FB607B6A93
:1025200003F003039B000F2202FA03F3DB43FA6874
:102530001340FB607B683C4A93421FD07B683B4A58
:10254000934219D07B683A4A934213D07B68394A48
:1025500093420DD07B68384A934207D07B68374A54
:10256000934201D105230AE0062308E0042306E094
:10257000032304E0022302E0012300E000237A6A3F
:1025800002F0030292009340FA681343FB6025496E
:102590007B6A9B080233FA6841F823203B685B683A
:1025A00003F48033002B06D0254B1A682449BB69FD
:1025B00013430B6006E0224B1A68BB69DB432049DA
:1025C00013400B603B685B6803F40033002B06D0BC
:1025D0001B4B5A681A49BB6913434B6006E0184B02
:1025E0005A68BB69DB43164913404B603B685B6824
:1025F00003F48013002B25D0114B9A681049BB6956
:1026000013438B6025E000BF000032100000311042
:102610000000221000002110000012100000111014
:10262000001002400000014000080140000C014081
:10263000001001400014014000180140001C01403E
:1026400000040140154B9A68BB69DB4313491340F2
:102650008B603B685B6803F40013002B06D00F4BC4
:10266000DA680E49BB691343CB6006E00B4BDA68AE
:10267000BB69DB4309491340CB607B6A01337B6252
:102680003B681A687B6A22FA03F3002B7FF47EAE64
:1026900000BF00BF2C37BD4680BC7047000401401E
:1026A00080B483B000AF78600B467B8013467B70AC
:1026B0007B78002B03D07A887B681A6103E07B88E3
:1026C0001A047B681A6100BF0C37BD4680BC704796
:1026D00080B582B000AF0346FB80084B5A69FB8887
:1026E0001340002B06D0054AFB885361FB8818462F
:1026F000FEF7C2FA00BF0837BD4680BD00040140A6
:1027000080B586B000AF78607B68002B01D10123D3
:1027100072E27B681B6803F00103002B00F08780E6
:10272000924B5B6803F00C03042B0CD08F4B5B685F
:1027300003F00C03082B12D18C4B5B6803F480333D
:10274000B3F5803F0BD1894B1B6803F40033002B9A
:102750006CD07B685B68002B68D101234CE27B68FE
:102760005B68B3F5803F06D1804B1B687F4A43F41A
:10277000803313602EE07B685B68002B0CD17B4BB1
:102780001B687A4A23F480331360784B1B68774ABE
:1027900023F4802313601DE07B685B68B3F5A02FF2
:1027A0000CD1724B1B68714A43F4802313606F4B4A
:1027B0001B686E4A43F4803313600BE06B4B1B685D
:1027C0006A4A23F480331360684B1B68674A23F41A
:1027D000802313607B685B68002B13D0FFF756FBE8
:1027E000386108E0FFF752FB02463B69D31A642BBD
:1027F00001D9032300E25D4B1B6803F40033002B77
:10280000F0D014E0FFF742FB386108E0FFF73EFB31
:1028100002463B69D31A642B01D90323ECE1534BE5
:102820001B6803F40033002BF0D100E000BF7B688D
:102830001B6803F00203002B63D04C4B5B6803F072
:102840000C03002B0BD0494B5B6803F00C03082BE7
:102850001CD1464B5B6803F48033002B16D1434BED
:102860001B6803F00203002B05D07B681B69012B5A
:1028700001D00123C0E13D4B1B6823F0F8027B68C7
:102880005B69DB00394913430B603AE07B681B69E5
:10289000002B20D0364B01221A60FFF7F7FA38617F
:1028A00008E0FFF7F3FA02463B69D31A022B01D97D
:1028B0000323A1E12D4B1B6803F00203002BF0D092
:1028C0002A4B1B6823F0F8027B685B69DB00274911
:1028D00013430B6015E0264B00221A60FFF7D6FA6F
:1028E000386108E0FFF7D2FA02463B69D31A022B9F
:1028F00001D9032380E11D4B1B6803F00203002B69
:10290000F0D17B681B6803F00803002B3AD07B688A
:102910009B69002B19D0174B01221A60FFF7B6FAFA
:10292000386108E0FFF7B2FA02463B69D31A022B7E
:1029300001D9032360E10D4B5B6A03F00203002B16
:10294000F0D0012000F0D8FA1CE00A4B00221A60F7
:10295000FFF79CFA38610FE0FFF798FA02463B69EF
:10296000D31A022B08D9032346E100BF001002400E
:102970000000424280044242924B5B6A03F0020331
:10298000002BE9D17B681B6803F00403002B00F0E7
:10299000A6800023FB758B4BDB6903F08053002B73
:1029A0000DD1884BDB69874A43F08053D361854B57
:1029B000DB6903F08053BB60BB680123FB75824B6E
:1029C0001B6803F48073002B18D17F4B1B687E4A71
:1029D00043F480731360FFF759FA386108E0FFF79A
:1029E00055FA02463B69D31A642B01D9032303E14C
:1029F000754B1B6803F48073002BF0D07B68DB6899
:102A0000012B06D16F4B1B6A6E4A43F00103136220
:102A10002DE07B68DB68002B0CD16A4B1B6A694A8E
:102A200023F001031362674B1B6A664A23F0040319
:102A300013621CE07B68DB68052B0CD1614B1B6AC1
:102A4000604A43F0040313625E4B1B6A5D4A43F025
:102A5000010313620BE05B4B1B6A5A4A23F001032C
:102A60001362584B1B6A574A23F0040313627B68B6
:102A7000DB68002B15D0FFF709FA38610AE0FFF791
:102A800005FA02463B69D31A41F28832934201D9D2
:102A90000323B1E04B4B1B6A03F00203002BEED083
:102AA00014E0FFF7F3F938610AE0FFF7EFF90246A7
:102AB0003B69D31A41F28832934201D903239BE048
:102AC000404B1B6A03F00203002BEED1FB7D012B70
:102AD00005D13C4BDB693B4A23F08053D3617B68D3
:102AE000DB69002B00F08780364B5B6803F00C033A
:102AF000082B61D07B68DB69022B46D1334B002267
:102B00001A60FFF7C3F9386108E0FFF7BFF9024622
:102B10003B69D31A022B01D903236DE0294B1B68B3
:102B200003F00073002BF0D17B681B6AB3F5803F84
:102B300008D1244B5B6823F400327B689B682149F1
:102B400013434B601F4B5B6823F474127B68196A54
:102B50007B685B6A0B431B4913434B601B4B012291
:102B60001A60FFF793F9386108E0FFF78FF9024622
:102B70003B69D31A022B01D903233DE0114B1B689B
:102B800003F00073002BF0D035E0104B00221A60E8
:102B9000FFF77CF9386108E0FFF778F902463B69F6
:102BA000D31A022B01D9032326E0064B1B6803F03E
:102BB0000073002BF0D11EE07B68DB69012B07D18D
:102BC000012319E000100240007000406000424202
:102BD0000B4B5B68FB60FB6803F480327B681B6A0D
:102BE0009A4206D1FB6803F470127B685B6A9A42D2
:102BF00001D0012300E0002318461837BD4680BDF0
:102C00000010024080B584B000AF786039607B6806
:102C1000002B01D10123D0E06A4B1B6803F00703AE
:102C20003A689A4210D9674B1B6823F0070265493E
:102C30003B6813430B60634B1B6803F007033A6860
:102C40009A4201D00123B8E07B681B6803F00203BD
:102C5000002B20D07B681B6803F00403002B05D0F9
:102C6000594B5B68584A43F4E06353607B681B68C8
:102C700003F00803002B05D0534B5B68524A43F422
:102C800060535360504B5B6823F0F0027B689B6895
:102C90004D4913434B607B681B6803F00103002B15
:102CA00040D07B685B68012B07D1474B1B6803F45E
:102CB0000033002B15D101237FE07B685B68022B7A
:102CC00007D1414B1B6803F00073002B09D101238E
:102CD00073E03D4B1B6803F00203002B01D101237D
:102CE0006BE0394B5B6823F003027B685B68364915
:102CF00013434B60FFF7CAF8F8600AE0FFF7C6F825
:102D00000246FB68D31A41F28832934201D9032369
:102D100053E02D4B5B6803F00C027B685B689B0003
:102D20009A42EBD1274B1B6803F007033A689A429B
:102D300010D2244B1B6823F0070222493B6813433F
:102D40000B60204B1B6803F007033A689A4201D0DE
:102D5000012332E07B681B6803F00403002B08D0DA
:102D6000194B5B6823F4E0627B68DB681649134308
:102D70004B607B681B6803F00803002B09D0124BE3
:102D80005B6823F460527B681B69DB000E491343C8
:102D90004B6000F021F802460B4B5B681B0903F007
:102DA0000F030A49CB5C22FA03F3094A1360094B6B
:102DB0001B681846FFF728F8002318461037BD4651
:102DC00080BD00BF0020024000100240E0F9000872
:102DD000000000200400002090B48AB000AF294B0E
:102DE0003C1D0FCB84E80F0040F201233B80002301
:102DF000FB610023BB6100237B6200237B61002316
:102E00003B62214B5B68FB61FB6903F00C03042B05
:102E100002D0082B03D02BE01C4B3B622BE0FB695C
:102E20009B0C03F00F0328333B4413F8243C7B61D5
:102E3000FB6903F48033002B12D0134B5B685B0CEF
:102E400003F0010328333B4413F8283CBB617B6942
:102E50000E4A03FB02F2BB69B2FBF3F37B6204E0B0
:102E60007B690B4A02FB03F37B627B6A3B6202E0F5
:102E7000064B3B6200BF3B6A18462837BD4690BCF4
:102E8000704700BF8CF600080010024000127A0064
:102E900000093D0080B400AF024B1B681846BD46D8
:102EA00080BC70470000002080B500AFFFF7F2FF44
:102EB0000246054B5B681B0A03F007030349CB5C22
:102EC00022FA03F3184680BD00100240F0F9000812
:102ED00080B500AFFFF7DEFF0246054B5B68DB0AFB
:102EE00003F007030349CB5C22FA03F3184680BDC5
:102EF00000100240F0F9000880B485B000AF78609F
:102F00000A4B1B680A4AA2FB03235B0A7A6802FB8E
:102F100003F3FB6000BFFB685A1EFA60002BF9D177
:102F200000BF00BF1437BD4680BC704700000020C2
:102F3000D34D621080B584B000AFF860B9607A609C
:102F4000FB68002B04D0FB689B69B3F5807F01D13F
:102F5000012338E0FB6893F84130DBB2002B06D147
:102F6000FB68002283F84020F868FEF7E1F8FB6870
:102F70001A68FB6808331946104601F0A9FBFB6884
:102F80001868FB689B681A46B96801F00BFCFB687F
:102F90005868FB689A68FB681B6B796801F036FC1F
:102FA000FB681B68FA68926853F82210FB681B687C
:102FB000FA68926841F0010143F82210FB6801228F
:102FC00083F84120002318461037BD4680BD80B5E8
:102FD00082B000AF78607B68002B01D1012341E013
:102FE0007B6893F83D30DBB2002B06D17B68002272
:102FF00083F83C207868FEF73DFD7B68022283F869
:103000003D207B681A687B6804331946104600F03F
:1030100061FB7B68012283F846207B68012283F8EC
:103020003E207B68012283F83F207B68012283F8E1
:1030300040207B68012283F841207B68012283F8CD
:1030400042207B68012283F843207B68012283F8B9
:1030500044207B68012283F845207B68012283F8A5
:103060003D20002318460837BD4680BD80B485B09A
:1030700000AF78607B6893F83D30DBB2012B01D064
:10308000012344E07B68022283F83D207B681B68B3
:10309000DA687B681B6842F00102DA607B681B68B3
:1030A0001D4A934218D07B681B681C4A934213D078
:1030B0007B681B68B3F1804F0ED07B681B68184A91
:1030C000934209D07B681B68164A934204D07B6800
:1030D0001B68154A934211D17B681B689B6803F0FB
:1030E0000703FB60FB68062B10D07B681B681A681F
:1030F0007B681B6842F001021A6007E07B681B686E
:103100001A687B681B6842F001021A6000231846A7
:103110001437BD4680BC7047002C0140003401408C
:103120000004004000080040000C004080B582B060
:1031300000AF78607B68002B01D1012341E07B6800
:1031400093F83D30DBB2002B06D17B68002283F878
:103150003C207868FEF7ECFC7B68022283F83D2077
:103160007B681A687B6804331946104600F0B2FA8F
:103170007B68012283F846207B68012283F83E2089
:103180007B68012283F83F207B68012283F840207E
:103190007B68012283F841207B68012283F842206A
:1031A0007B68012283F843207B68012283F8442056
:1031B0007B68012283F845207B68012283F83D204B
:1031C000002318460837BD4680BD80B582B000AFE9
:1031D00078607B681B681B6903F00203022B22D115
:1031E0007B681B68DB6803F00203022B1BD17B6842
:1031F0001B686FF002021A617B6801221A777B68F4
:103200001B689B6903F00303002B03D0786800F070
:1032100045FA05E0786800F038FA786800F047FA77
:103220007B6800221A777B681B681B6903F0040324
:10323000042B22D17B681B68DB6803F00403042B9A
:103240001BD17B681B686FF004021A617B68022245
:103250001A777B681B689B6903F44073002B03D0CB
:10326000786800F01BFA05E0786800F00EFA7868DC
:1032700000F01DFA7B6800221A777B681B681B69C7
:1032800003F00803082B22D17B681B68DB6803F07E
:103290000803082B1BD17B681B686FF008021A61BA
:1032A0007B6804221A777B681B68DB6903F00303E1
:1032B000002B03D0786800F0F1F905E0786800F0A1
:1032C000E4F9786800F0F3F97B6800221A777B68EC
:1032D0001B681B6903F01003102B22D17B681B684D
:1032E000DB6803F01003102B1BD17B681B686FF0A9
:1032F00010021A617B6808221A777B681B68DB69F9
:1033000003F44073002B03D0786800F0C7F905E0A0
:10331000786800F0BAF9786800F0C9F97B68002293
:103320001A777B681B681B6903F00103012B0ED120
:103330007B681B68DB6803F00103012B07D17B6806
:103340001B686FF001021A617868FDF7BDFC7B68AD
:103350001B681B6903F08003802B0ED17B681B6800
:10336000DB6803F08003802B07D17B681B686FF05C
:1033700080021A61786800F04CFC7B681B681B694E
:1033800003F04003402B0ED17B681B68DB6803F021
:103390004003402B07D17B681B686FF040021A6125
:1033A000786800F08DF97B681B681B6903F02003C7
:1033B000202B0ED17B681B68DB6803F02003202BD9
:1033C00007D17B681B686FF020021A61786800F0F3
:1033D00017FC00BF0837BD4680BD80B584B000AF84
:1033E000F860B9607A60FB6893F83C30012B01D13A
:1033F000022382E0FB68012283F83C207B68002BDB
:103400001BD1FB681868BB681968BB685A68BB6841
:10341000DB6800F0D9F9FB681B689A69FB681B68D8
:1034200022F00C029A61FB681B689969BB689A6874
:10343000FB681B680A439A615AE07B68042B1CD125
:10344000FB681868BB681968BB685A68BB68DB68AA
:1034500000F04EFAFB681B689A69FB681B6822F44F
:1034600040629A61FB681B689969BB689B681A0295
:10347000FB681B680A439A613AE07B68082B1BD102
:10348000FB681868BB681968BB685A68BB68DB686A
:1034900000F099FAFB681B68DA69FB681B6822F088
:1034A0000C02DA61FB681B68D969BB689A68FB6823
:1034B0001B680A43DA611BE0FB681868BB6819687F
:1034C000BB685A68BB68DB6800F0B8FAFB681B6829
:1034D000DA69FB681B6822F44062DA61FB681B68EA
:1034E000D969BB689B681A02FB681B680A43DA61EA
:1034F000FB68002283F83C20002318461037BD46A5
:1035000080BD80B584B000AF786039607B6893F887
:103510003C30012B01D10223B3E07B68012283F808
:103520003C207B68022283F83D207B681B689B68F7
:10353000FB60FB6823F07703FB60FB6823F47F43A9
:10354000FB607B681B68FA689A603B681B68B3F590
:10355000005F3ED0B3F5005F00F28780B3F5805F77
:1035600000F08580B3F5805F7FD8702B1AD0702B68
:103570007BD8602B50D0602B77D8502B3CD0502B71
:1035800073D8402B58D0402B6FD8302B64D0302BC1
:103590006BD8202B60D0202B67D8002B5CD0102B51
:1035A0005AD062E07B6818683B6899683B685A6843
:1035B0003B68DB6800F098FA7B681B689B68FB60DF
:1035C000FB6843F07703FB607B681B68FA689A60CE
:1035D0004EE07B6818683B6899683B685A683B68AE
:1035E000DB6800F081FA7B681B689A687B681B685F
:1035F00042F480429A603BE07B6818683B685968F7
:103600003B68DB681A4600F045F97B681B6850216F
:10361000184600F04FFA2BE07B6818683B68596841
:103620003B68DB681A4600F09FF97B681B686021E5
:10363000184600F03FFA1BE07B6818683B68596841
:103640003B68DB681A4600F025F97B681B6840215F
:10365000184600F02FFA0BE07B681A683B681B687D
:103660001946104600F026FA02E000BF00E000BF55
:103670007B68012283F83D207B68002283F83C2090
:10368000002318461037BD4680BD80B483B000AF1C
:10369000786000BF0C37BD4680BC704780B483B0F3
:1036A00000AF786000BF0C37BD4680BC704780B467
:1036B00083B000AF786000BF0C37BD4680BC704758
:1036C00080B483B000AF786000BF0C37BD4680BCCB
:1036D0007047000080B485B000AF786039607B68C7
:1036E0001B68FB607B68334A934213D07B68324A85
:1036F00093420FD07B68B3F1804F0BD07B682F4A89
:10370000934207D07B682E4A934203D07B682D4AB0
:10371000934208D1FB6823F07003FB603B685B6851
:10372000FA681343FB607B68224A934213D07B689C
:10373000214A93420FD07B68B3F1804F0BD07B6856
:103740001E4A934207D07B681D4A934203D07B6890
:103750001C4A934208D1FB6823F44073FB603B682A
:10376000DB68FA681343FB60FB6823F080023B6868
:103770005B691343FB607B68FA681A603B689A6870
:103780007B68DA623B681A687B689A627B68094AE0
:10379000934203D07B68084A934203D13B681A697D
:1037A0007B681A637B6801225A6100BF1437BD46EB
:1037B00080BC7047002C01400034014000040040F0
:1037C00000080040000C004080B487B000AFF860F3
:1037D000B9607A603B60FB681B6A23F00102FB68FA
:1037E0001A62FB689B697B61FB681B6A3B61FB6833
:1037F000234A934213D0FB68224A93420FD0FB68BE
:10380000B3F1804F0BD0FB681F4A934207D0FB688F
:103810001E4A934203D0FB681D4A934201D1012303
:1038200000E00023002B08D07B6923F003037B61B9
:103830007A697B6813437B6103E07B6943F0010392
:103840007B617B6923F0F0037B613B681B01DBB28A
:103850007A6913437B613B6923F00A033B61BB68D0
:1038600003F00A033A6913433B61FB687A699A6182
:10387000FB683A691A6200BF1C37BD4680BC7047BE
:10388000002C0140003401400004004000080040CA
:10389000000C004080B487B000AFF860B9607A6077
:1038A000FB681B6A7B61FB681B6A23F00102FB68F3
:1038B0001A62FB689B693B613B6923F0F0033B6143
:1038C0007B681B013A6913433B617B6923F00A0360
:1038D0007B617A69BB6813437B61FB683A699A61D3
:1038E000FB687A691A6200BF1C37BD4680BC70470E
:1038F00080B487B000AFF860B9607A603B60FB6865
:103900001B6A23F01002FB681A62FB689B697B61EB
:10391000FB681B6A3B617B6923F440737B617B68B6
:103920001B027A6913437B617B6923F470437B61DB
:103930003B681B039BB27A6913437B613B6923F0AD
:10394000A0033B61BB681B0103F0A0033A6913436A
:103950003B61FB687A699A61FB683A691A6200BF49
:103960001C37BD4680BC704780B487B000AFF8609C
:10397000B9607A60FB681B6A23F01002FB681A6268
:10398000FB689B697B61FB681B6A3B617B6923F475
:1039900070437B617B681B037A6913437B613B69DE
:1039A00023F0A0033B61BB681B013A6913433B61F1
:1039B000FB687A699A61FB683A691A6200BF1C3732
:1039C000BD4680BC704780B487B000AFF860B96076
:1039D0007A603B60FB681B6A23F48072FB681A62A2
:1039E000FB68DB697B61FB681B6A3B617B6923F0D9
:1039F00003037B617A697B6813437B617B6923F0F6
:103A0000F0037B613B681B01DBB27A6913437B6186
:103A10003B6923F400733B61BB681B0203F4007332
:103A20003A6913433B61FB687A69DA61FB683A697A
:103A30001A6200BF1C37BD4680BC704780B487B097
:103A400000AFF860B9607A603B60FB681B6A23F4E2
:103A50008052FB681A62FB68DB697B61FB681B6A4A
:103A60003B617B6923F440737B617B681B027A694D
:103A700013437B617B6923F470437B613B681B03C9
:103A80009BB27A6913437B613B6923F400533B612A
:103A9000BB681B0303F400533A6913433B61FB68A3
:103AA0007A69DA61FB683A691A6200BF1C37BD4661
:103AB00080BC704780B485B000AF786039607B68A7
:103AC0009B68FB60FB6823F07003FB603A68FB684F
:103AD000134343F00703FB607B68FA689A6000BFFA
:103AE0001437BD4680BC704780B487B000AFF86023
:103AF000B9607A603B60FB689B687B617B6923F4FB
:103B00007F437B613B681A027B681A43BB6813439F
:103B10007A6913437B61FB687A699A6000BF1C373E
:103B2000BD4680BC7047000080B485B000AF7860AF
:103B300039607B6893F83C30012B01D1022350E0BF
:103B40007B68012283F83C207B68022283F83D20B9
:103B50007B681B685B68FB607B681B689B68BB605D
:103B6000FB6823F07003FB603B681B68FA68134333
:103B7000FB607B681B68FA685A607B681B681B4A9D
:103B8000934218D07B681B68194A934213D07B6814
:103B90001B68B3F1804F0ED07B681B68154A9342B7
:103BA00009D07B681B68144A934204D07B681B6869
:103BB000124A93420CD1BB6823F08003BB603B6880
:103BC0005B68BA681343BB607B681B68BA689A601D
:103BD0007B68012283F83D207B68002283F83C202B
:103BE000002318461437BD4680BC7047002C0140A6
:103BF000003401400004004000080040000C004078
:103C000080B483B000AF786000BF0C37BD4680BC85
:103C1000704780B483B000AF786000BF0C37BD46FA
:103C200080BC704780B582B000AF78607B68002BA5
:103C300001D101233FE07B6893F83D30DBB2002BDC
:103C400006D17B68002283F83C207868FDF7E6FF08
:103C50007B68242283F83D207B681B68DA687B68D8
:103C60001B6822F40052DA60786800F0A3FC7B68DD
:103C70001B681A697B681B6822F490421A617B6892
:103C80001B685A697B681B6822F02A025A617B68AC
:103C90001B68DA687B681B6842F40052DA607B6854
:103CA00000221A647B68202283F83D207B68202252
:103CB00083F83E20002318460837BD4680BD80B5F6
:103CC0008AB002AFF860B9603B601346FB80002306
:103CD0007B61FB6893F83D30DBB2202B7CD1BB6865
:103CE000002B02D0FB88002B01D1012375E0FB687B
:103CF00093F83C30012B01D102236EE0FB680122D6
:103D000083F83C20FB6800221A64FB68212283F8B8
:103D10003D20FEF7BBF87861FB68FA889A84FB685F
:103D2000FA88DA84FB689B68B3F5805F08D1FB688A
:103D30001B69002B04D10023FB61BB68BB6103E05E
:103D4000BB68FB610023BB61FB68002283F83C2059
:103D50002AE03B6800937B6900228021F86800F02C
:103D600055FA0346002B01D0032336E0FB69002BF4
:103D70000BD1BB691B881A46FB681B68C2F308029B
:103D80005A60BB690233BB6107E0FB691A78FB68C4
:103D90001B685A60FB690133FB61FB68DB8C9BB2DB
:103DA000013B9AB2FB68DA84FB68DB8C9BB2002B88
:103DB000CFD13B6800937B6900224021F86800F076
:103DC00025FA0346002B01D0032306E0FB682022DE
:103DD00083F83D20002300E0022318462037BD462B
:103DE00080BD80B584B000AFF860B9601346FB8039
:103DF000FB6893F83E30DBB2202B1DD1BB68002B53
:103E000002D0FB88002B01D1012316E0FB6893F858
:103E10003C30012B01D102230FE0FB68012283F823
:103E20003C20FB6800221A63FB881A46B968F868D0
:103E300000F036FA034600E0022318461037BD466C
:103E400080BD000080B58AB000AF78607B681B68D9
:103E50001B687B627B681B68DB683B627B681B6856
:103E60005B69FB610023BB6100237B617B6A03F01C
:103E70000F03BB61BB69002B0DD17B6A03F02003EC
:103E8000002B08D03B6A03F02003002B03D0786896
:103E900000F0E6FA7BE1BB69002B00F0B180FB6922
:103EA00003F00103002B05D13B6A03F49073002B50
:103EB00000F0A6807B6A03F00103002B0AD03B6A66
:103EC00003F48073002B05D07B681B6C43F0010268
:103ED0007B681A647B6A03F00403002B0AD0FB6939
:103EE00003F00103002B05D07B681B6C43F002023A
:103EF0007B681A647B6A03F00203002B0AD0FB691B
:103F000003F00103002B05D07B681B6C43F0040217
:103F10007B681A647B6A03F00803002B0FD03B6AAE
:103F200003F02003002B04D1FB6903F00103002BF5
:103F300005D07B681B6C43F008027B681A647B68C1
:103F40001B6C002B00F01E817B6A03F02003002B0A
:103F500007D03B6A03F02003002B02D0786800F002
:103F60007FFA7B681B685B6903F04003002B14BF7A
:103F700001230023DBB27B617B681B6C03F0080329
:103F8000002B02D17B69002B31D0786800F0C1F999
:103F90007B681B685B6903F04003002B23D07B68C0
:103FA0001B685A697B681B6822F040025A617B6873
:103FB0009B6B002B13D07B689B6B764A5A637B68A4
:103FC0009B6B1846FEF7D0F80346002B16D07B6893
:103FD0009B6B5B6B7A68926B104698470EE0786833
:103FE00000F0E3F80AE0786800F0DFF806E07868AF
:103FF00000F0DBF87B6800221A64C3E000BFC1E078
:104000007B681B6B012B40F0A1807B6A03F01003DF
:10401000002B00F09B803B6A03F01003002B00F0A4
:1040200095800023FB607B681B681B68FB607B68D6
:104030001B685B68FB60FB687B681B685B6903F05F
:104040004003002B4ED07B689B6B1B685B683B82F8
:104050003B8A002B00F098807B689B8D3A8A9A42BD
:1040600080F092807B683A8ADA857B689B6B9B69DB
:10407000202B2BD07B681B68DA687B681B6822F4D6
:104080008072DA607B681B685A697B681B6822F063
:1040900001025A617B681B685A697B681B6822F0C1
:1040A00040025A617B68202283F83E207B68002210
:1040B0001A637B681B68DA687B681B6822F0100251
:1040C000DA607B689B6B1846FEF714F87B689A8D64
:1040D0007B68DB8D9BB2D31A9BB21946786800F0DF
:1040E0006DF851E07B689A8D7B68DB8D9BB2D31AAB
:1040F0007B827B68DB8D9BB2002B47D07B8A002BB9
:1041000044D07B681B68DA687B681B6822F4907275
:10411000DA607B681B685A697B681B6822F00102C1
:104120005A617B68202283F83E207B6800221A6354
:104130007B681B68DA687B681B6822F01002DA6013
:104140007B8A1946786800F039F81FE07B6A03F033
:104150008003002B08D03B6A03F08003002B03D0C0
:10416000786800F016F912E07B6A03F04003002B38
:104170000DD03B6A03F04003002B08D0786800F0B4
:1041800057F904E000BF02E000BF00E000BF28379D
:10419000BD4680BD6B43000880B483B000AF78603B
:1041A00000BF0C37BD4680BC704780B483B000AF01
:1041B000786000BF0C37BD4680BC704780B483B0C8
:1041C00000AF78600B467B8000BF0C37BD4680BCDB
:1041D000704780B485B000AF78600023FB60002397
:1041E000BB607B6893F83D30DBB2FB607B6893F883
:1041F0003E30DBB2BB60FB68DAB2BB68DBB21343B4
:10420000DBB218461437BD4680BC704780B584B019
:1042100000AFF860B9603B601346FB712CE0BB69EE
:10422000B3F1FF3F28D0BB69002B07D0FDF72EFE6E
:1042300002463B68D31ABA699A421DD2FB681B68D2
:10424000DA68FB681B6822F4D072DA60FB681B68CE
:104250005A69FB681B6822F001025A61FB68202240
:1042600083F83D20FB68202283F83E20FB68002273
:1042700083F83C2003230FE0FB681B681A68BB68C7
:104280001340BA689A420CBF01230023DBB21A46DE
:10429000FB799A42C3D0002318461037BD4680BD33
:1042A00080B485B000AFF860B9601346FB80FB684E
:1042B000BA689A62FB68FA889A85FB68FA88DA8598
:1042C000FB6800221A64FB68222283F83E20FB6808
:1042D000002283F83C20FB681B68DA68FB681B68D7
:1042E00042F48072DA60FB681B685A69FB681B68DD
:1042F00042F001025A61FB681B68DA68FB681B68C0
:1043000042F02002DA60002318461437BD4680BC14
:10431000704780B483B000AF78607B681B68DA6850
:104320007B681B6822F49072DA607B681B685A69AC
:104330007B681B6822F001025A617B681B6B012BB2
:1043400007D17B681B68DA687B681B6822F0100263
:10435000DA607B68202283F83E207B6800221A63A3
:1043600000BF0C37BD4680BC704780B584B000AF3D
:1043700078607B685B6AFB60FB680022DA85FB681B
:104380000022DA84F868FFF710FF00BF1037BD463F
:1043900080BD80B485B000AF78607B6893F83D3015
:1043A000DBB2212B3ED17B689B68B3F5805F14D1D3
:1043B0007B681B69002B10D17B681B6AFB60FB6864
:1043C0001B881A467B681B68C2F308025A607B6828
:1043D0001B6A9A1C7B681A6208E07B681B6A591C7E
:1043E0007A6811621A787B681B685A607B68DB8C7C
:1043F0009BB2013B9BB27A681946D184002B0FD146
:104400007B681B68DA687B681B6822F08002DA60D0
:104410007B681B68DA687B681B6842F04002DA60E0
:10442000002300E0022318461437BD4680BC7047C5
:1044300080B582B000AF78607B681B68DA687B6803
:104440001B6822F04002DA607B68202283F83D205E
:104450007868FFF7A1FE002318460837BD4680BDE7
:1044600080B586B000AF78607B6893F83E30DBB2F1
:10447000222B40F099807B689B68B3F5805F17D151
:104480007B681B69002B13D100237B617B689B6ACF
:104490003B617B681B685B689BB2C3F308039AB2FD
:1044A0003B691A807B689B6A9A1C7B689A6226E04B
:1044B0007B689B6A7B6100233B617B689B68B3F5EB
:1044C000805F07D07B689B68002B0AD17B681B69E3
:1044D000002B06D17B681B685B68DAB27B691A70B7
:1044E00008E07B681B685B68DBB203F07F03DAB22D
:1044F0007B691A707B689B6A5A1C7B689A627B682E
:10450000DB8D9BB2013B9BB27A681946D185002BAB
:1045100048D17B681B68DA687B681B6822F0200240
:10452000DA607B681B68DA687B681B6822F480723B
:10453000DA607B681B685A697B681B6822F001029D
:104540005A617B68202283F83E207B681B6B012B1D
:1045500023D17B6800221A637B681B68DA687B685A
:104560001B6822F01002DA607B681B681B6803F08E
:104570001003102B0AD10023FB607B681B681B68AB
:10458000FB607B681B685B68FB60FB687B689B8DDE
:1045900019467868FFF712FE02E07868FDF792FB93
:1045A000002302E0002300E0022318461837BD462E
:1045B00080BD000080B584B000AF78607B681B6868
:1045C0001B6923F440517B68DA687B681B680A43E7
:1045D0001A617B689A687B681B691A437B685B6910
:1045E0001343BB607B681B68DB6823F4B05323F084
:1045F0000C037A681268B9680B43D3607B681B6848
:104600005B6923F440717B689A697B681B680A4385
:104610005A617B681B682C4A934203D1FEF758FC11
:10462000F86002E0FEF740FCF860FA6813469B0071
:1046300013449A001A447B685B689B00B2FBF3F357
:10464000224AA2FB03235B091901FA6813469B0067
:1046500013449A001A447B685B689B00B2FBF3F238
:104660001A4BA3FB02035B09642000FB03F3D31A7C
:104670001B013233154AA2FB03235B0903F0F0034D
:104680001944FA6813469B0013449A001A447B6845
:104690005B689B00B2FBF3F20C4BA3FB02035B09CC
:1046A000642000FB03F3D31A1B013233074AA2FB39
:1046B00003235B0903F00F027B681B680A449A60BE
:1046C00000BF1037BD4680BD003801401F85EB514B
:1046D00080B487B000AF786039603B681A687B6847
:1046E00053F822303A68126823F001017B6843F8DE
:1046F00022103B689B68082B02D140237B6101E0BC
:1047000000237B613B685A687B691A433B689B685E
:104710001A433B68DB681A433B681B691A433B68D2
:104720005B691A433B68DB691A433B681B6A1A439F
:104730003B685B6A1A433B689B6A1A433B68DB6AC7
:104740001A433B681B6B13433B613B689B693A69A7
:1047500013433B613B685B6B3A6913433B61104B0E
:10476000FB60FB6843F48063FB60FB6843F4E02379
:10477000FB603B681A687B6853F82220FB68DB43C8
:1047800002EA03013B681A683B6919437B6843F8F6
:104790002210002318461C37BD4680BC704700BF5E
:1047A0007FFB080080B485B000AFF860B9607A6024
:1047B0007B685A1CFB6853F8223003F04041BB6809
:1047C0001A68BB685B681B011A43BB689B681B02C5
:1047D0001A43BB68DB681B041A43BB681B69013BB7
:1047E0001B051A43BB685B69023B1B061A43BB6887
:1047F0009B6913437A6801321943FB6843F822101E
:10480000002318461437BD4680BC704780B485B07D
:1048100000AFF860B9607A603B603B68B3F5804FE9
:104820001DD1FB687A6853F82220134B1340BA68F5
:104830001168BA68526812011143BA68926812028C
:104840001143BA6892691143BA68D26812040A43E4
:1048500043EA0201FB687A6843F8221005E0FB682E
:104860007A686FF0704143F822100023184614371D
:10487000BD4680BC704700BF0000F0CF80B485B05B
:1048800000AF0346FB800023FB60B7F90630842BA2
:1048900005D0B7F90620FB6813440333FB60FB68BF
:1048A00018461437BD4680BC704780B483B000AF53
:1048B000EFF305837B607B68002B14BF012300238B
:1048C000DBB218460C37BD4680BC704780B500AFE0
:1048D00001F088FE0023184680BD80B500AFFFF7C9
:1048E000E4FF0346002B03D001F0A8FF034602E0DB
:1048F00001F096FF0346184680BDF0B589B004AFBD
:10490000786039607B685B69002B20D07B689B698D
:10491000002B1CD07B685C687B681D687B681E6907
:104920007B68B3F908301846FFF7A8FF01467B689B
:104930005B697A6892690292019300913B68324602
:104940002946204601F050FB0346FB601CE07B68D3
:104950005C687B681D687B681B699EB27B68B3F9E5
:1049600008301846FFF78AFF024607F10C0301934F
:1049700000923B6832462946204601F091FB0346EF
:10498000012B01D0002300E0FB6818461437BD4618
:10499000F0BD80B584B000AF78607B68FB60FB68D9
:1049A000002B01D0FB6800E00123184601F0E6FD72
:1049B000002318461037BD4680BD000080B586B084
:1049C00002AF786039600023FB600023BB60FFF713
:1049D0006CFF0346002B1CD0396807F1080207F171
:1049E0000C03009313460122786802F083FD03460E
:1049F000012B02D04FF0004319E0FB68002B15D0CB
:104A00000D4B4FF080521A60BFF34F8FBFF36F8F83
:104A10000CE0396807F108030122786802F0C0FC55
:104A20000346012B02D04FF0004300E0BB6818465C
:104A30001037BD4680BD00BF04ED00E090B589B0E1
:104A400000AFF860B9607A6000237B610023FB61EE
:104A50007B68B3F1FF3F03D14FF0FF33FB6109E007
:104A60007B68002B06D07B68FB61FB69002B01D1C2
:104A70000123FB61FFF719FF0346002B02D08223BD
:104A80003B611BE0B96807F110031A1DFB690020A8
:104A900002F026FC0346012B08D0FB69002B02D153
:104AA00000233B610AE040233B6107E07B69002B68
:104AB00002DA86233B6101E008233B61FB681C4668
:104AC00007F1100393E8070084E80700F86824372B
:104AD000BD4690BD80B582B000AF78607B685B68F2
:104AE000002B07D07B685B681946012000F0E2FBD1
:104AF000034603E0012000F0C5FB034618460837D3
:104B0000BD4680BD80B584B000AF786039600023B9
:104B1000BB607B68002B01D180233AE00023FB605F
:104B20003B68B3F1FF3F03D14FF0FF33FB6009E077
:104B30003B68002B06D03B68FB60FB68002B01D173
:104B40000123FB60FFF7B1FE0346002B17D007F1EE
:104B500008031A460021786801F042F80346012B49
:104B600001D0FF2315E0BB68002B11D00B4B4FF099
:104B700080521A60BFF34F8FBFF36F8F08E0F96860
:104B8000786800F021FF0346012B01D0FF2300E0ED
:104B9000002318461037BD4680BD00BF04ED00E07D
:104BA00080B584B000AF78600023FB600023BB6059
:104BB000FFF77BFE0346002B16D007F108031946CA
:104BC000786800F093FD0346012B01D0FF2317E026
:104BD000BB68002B13D00C4B4FF080521A60BFF310
:104BE0004F8FBFF36F8F0AE0002300220021786807
:104BF00000F0E6FB0346012B01D0FF23FB60FB68BE
:104C000018461037BD4680BD04ED00E080B586B083
:104C100002AF786039607B685B68002B16D03B6818
:104C2000012B0AD17B685B680322009200220021DD
:104C3000012000F035FA034623E0386839687B68C4
:104C40005B681A4600F051FB03461AE03B68012BF3
:104C500010D103220021012000F099FAF860FB68CE
:104C6000002B05D0002300220021F86800F0A8FBEB
:104C7000FB6806E03B683A681146184600F06CFB9A
:104C8000034618461037BD4680BD80B586B000AFDC
:104C900078607B685B68033323F00303FB601420B8
:104CA00003F064FA78617B69002B46D07B681A6850
:104CB0007B699A60FA687B69DA607B6900221A6115
:104CC0007B681B68184603F051FA02467B695A60FC
:104CD0007B695B68002B2BD07B681B68FA6802FB42
:104CE00003F3184603F042FA02467B691A607B69B7
:104CF0001B68002B11D000233B6108E07B695A68D8
:104D00003B69134400221A703B6901333B617B68A5
:104D10001B683A699A42F1D30FE07B695B681846D9
:104D200003F0E8FA786903F0E5FA00237B6104E018
:104D3000786903F0DFFA00237B617B691846183736
:104D4000BD4680BD90B585B002AF786039607B68A4
:104D50009B68002B11D07B68DB68002B0DD07B6833
:104D600018687B6859687B689A687B68DB680024F0
:104D7000009400F095F9034608E07B6818687B68AA
:104D80005B680022194600F002FA034618460C3709
:104D9000BD4690BD90B587B000AF786039607B6844
:104DA0001B68FB607B685B683B6100237B617B6801
:104DB0009C680C2003F0DAF9034623607B689B684B
:104DC0001B68002B01D1002338E07B689B681B68BF
:104DD0007A681A607B6818687B689B681C68002288
:104DE000042100F0D4F9034663607B689B681B686C
:104DF0005B68002B07D17B689B681B68184603F033
:104E000079FA00231AE07B689B681C6807F10C03A1
:104E10001846FFF73AFF0346A3607B689B681B6850
:104E20009B68002B07D17B689B681B68184603F0C2
:104E300061FA002302E07B689B681B6818461C37F8
:104E4000BD4690BD80B584B000AF786039603B68E6
:104E5000FB60FB68002B01D0FB6800E001231946D2
:104E6000786801F00DFB002318461037BD4680BD61
:104E700080B483B000AF78607B6803F108027B6880
:104E80005A607B684FF0FF329A607B6803F108023A
:104E90007B68DA607B6803F108027B681A617B68D3
:104EA00000221A6000BF0C37BD4680BC704780B43A
:104EB00083B000AF78607B6800221A6100BF0C37B6
:104EC000BD4680BC704780B485B000AF7860396063
:104ED0007B685B68FB603B68FA685A60FB689A68AD
:104EE0003B689A60FB689B683A685A60FB683A685E
:104EF0009A603B687A681A617B681B685A1C7B68F9
:104F00001A6000BF1437BD4680BC704780B485B0BE
:104F100000AF786039603B681B68BB60BB68B3F169
:104F2000FF3F03D17B681B69FB600CE07B680833A3
:104F3000FB6002E0FB685B68FB60FB685B681B680A
:104F4000BA689A42F6D2FB685A683B685A603B6876
:104F50005B683A689A603B68FA689A60FB683A68EE
:104F60005A603B687A681A617B681B685A1C7B68C8
:104F70001A6000BF1437BD4680BC704780B485B04E
:104F800000AF78607B681B69FB607B685B687A6850
:104F900092689A607B689B687A6852685A60FB687E
:104FA0005B687A689A4203D17B689A68FB685A60AA
:104FB0007B6800221A61FB681B685A1EFB681A6036
:104FC000FB681B6818461437BD4680BC704700005C
:104FD00080B584B000AF786039607B68FB60FB68A7
:104FE000002B0AD14FF0500383F31188BFF36F8F6A
:104FF000BFF34F8FBB6000BFFEE702F0B7FFFB6857
:105000001A68FB68DB6BF968096C01FB03F31A444F
:10501000FB685A60FB6800229A63FB681A68FB68A9
:105020009A60FB681A68FB68DB6B013BF968096CE6
:1050300001FB03F31A44FB68DA60FB68FF2283F884
:105040004420FB68FF2283F845203B68002B14D1E5
:10505000FB681B69002B1AD0FB681033184601F05F
:105060008DFD0346002B12D00C4B4FF080521A607E
:10507000BFF34F8FBFF36F8F09E0FB681033184603
:10508000FFF7F6FEFB6824331846FFF7F1FE02F047
:105090009DFF012318461037BD4680BD04ED00E09A
:1050A00080B58EB002AFF860B9607A603B60FB6893
:1050B000002B0AD14FF0500383F31188BFF36F8F99
:1050C000BFF34F8FBB6200BFFEE73B68002B0AD1E6
:1050D0004FF0500383F31188BFF36F8FBFF34F8FEF
:1050E0007B6200BFFEE77B68002B02D0BB68002B11
:1050F00001D0012300E00023002B0AD14FF0500320
:1051000083F31188BFF36F8FBFF34F8F3B6200BFF4
:10511000FEE77B68002B02D1BB68002B01D1012385
:1051200000E00023002B0AD14FF0500383F31188D5
:10513000BFF36F8FBFF34F8FFB6100BFFEE75023BC
:105140007B617B69502B0AD04FF0500383F31188A9
:10515000BFF36F8FBFF34F8FBB6100BFFEE73B68AC
:10516000FB62FB6A002B0DD0FB6A012283F846200C
:1051700097F83820FB6A009313467A68B968F86894
:1051800000F043F8FB6A18463037BD4680BD80B555
:105190008AB002AFF860B9601346FB71FB68002B60
:1051A0000AD14FF0500383F31188BFF36F8FBFF321
:1051B0004F8F3B6100BFFEE7BB68002B02D100238D
:1051C000FB6104E0FB68BA6802FB03F3FB61FB6967
:1051D0005033184602F0CAFFB861BB69002B0FD0EC
:1051E000BB6950337B61BB69002283F84620FA79A2
:1051F000BB69009313467A69B968F86800F005F84E
:10520000BB6918462037BD4680BD80B584B000AF6D
:10521000F860B9607A60FB70BB68002B03D1BB6992
:10522000BA691A6002E0BB697A681A60BB69FA68F9
:10523000DA63BB69BA681A640121B869FFF7C8FE6E
:10524000BB69FA7883F84C2000BF1037BD4680BD9B
:1052500080B582B000AF78607B68002B0ED07B6891
:1052600000225A607B6800221A607B680022DA60A4
:10527000002300220021786800F0A2F800BF083760
:10528000BD4680BD80B586B000AF0346FB710123EB
:105290007B6100233B61FB791A4639697869FFF726
:1052A00076FFF860F868FFF7D3FFFB6818461837F9
:1052B000BD4680BD80B588B002AF03463960FB7142
:1052C00001237B6100233B61FB7900933B68002253
:1052D00039697869FFF7E4FEF860F868FFF7B8FF0E
:1052E000FB6818461837BD4680BD80B58AB002AF4E
:1052F000F860B9607A60FB68002B0AD14FF0500368
:1053000083F31188BFF36F8FBFF34F8FBB6100BF73
:10531000FEE7BA68FB689A420AD94FF0500383F35C
:105320001188BFF36F8FBFF34F8F7B6100BFFEE724
:10533000022300937B6800220021F868FFF7B0FE8B
:10534000F861FB69002B02D0FB69BA689A63FB69BC
:1053500018462037BD4680BD80B586B000AF786066
:1053600039607B68002B0AD14FF0500383F311881A
:10537000BFF36F8FBFF34F8F3B6100BFFEE73A680B
:105380007B689A420AD94FF0500383F31188BFF328
:105390006F8FBFF34F8FFB6000BFFEE7022200213B
:1053A0007868FFF7F4FE78617B69002B02D07B6997
:1053B0003A689A637B6918461837BD4680BD00007D
:1053C00080B58EB000AFF860B9607A603B600023B2
:1053D0007B63FB683B633B6B002B0AD14FF05003B0
:1053E00083F31188BFF36F8FBFF34F8FBB6200BF92
:1053F000FEE7BB68002B03D13B6B1B6C002B01D17C
:10540000012300E00023002B0AD14FF0500383F367
:105410001188BFF36F8FBFF34F8F7B6200BFFEE732
:105420003B68022B03D13B6BDB6B012B01D10123CA
:1054300000E00023002B0AD14FF0500383F31188C2
:10544000BFF36F8FBFF34F8F3B6200BFFEE701F0EA
:1054500069FD0346002B02D17B68002B01D101239B
:1054600000E00023002B0AD14FF0500383F3118892
:10547000BFF36F8FBFF34F8FFB6100BFFEE702F0FA
:1054800075FD3B6B9A6B3B6BDB6B9A4202D33B68BF
:10549000022B29D13A68B968386B00F038FCF86201
:1054A0003B6B5B6A002B10D03B6B2433184601F03A
:1054B00065FB0346002B13D03F4B4FF080521A6020
:1054C000BFF34F8FBFF36F8F0AE0FB6A002B07D04B
:1054D000394B4FF080521A60BFF34F8FBFF36F8F7D
:1054E00002F074FD012363E07B68002B03D102F01E
:1054F0006DFD00235CE07B6B002B06D107F11403EC
:10550000184601F09DFB01237B6302F05FFD01F073
:10551000DDF802F02BFD3B6B93F844305BB2B3F146
:10552000FF3F03D13B6B002283F844203B6B93F891
:1055300045305BB2B3F1FF3F03D13B6B002283F8F0
:10554000452002F043FD3A1D07F1140311461846A9
:1055500001F08CFB0346002B24D1386B00F0CFFC0C
:105560000346002B18D03B6B10337A68114618465F
:1055700001F0B4FA386B00F05AFC01F0B5F80346BC
:10558000002B7FF47CAF0C4B4FF080521A60BFF3BE
:105590004F8FBFF36F8F72E7386B00F048FC01F05C
:1055A000A3F86CE7386B00F042FC01F09DF8002393
:1055B00018463837BD4680BD04ED00E080B58EB09A
:1055C00000AFF860B9607A603B60FB683B633B6B9F
:1055D000002B0AD14FF0500383F31188BFF36F8F74
:1055E000BFF34F8F7B6200BFFEE7BB68002B03D188
:1055F0003B6B1B6C002B01D1012300E00023002B2F
:105600000AD14FF0500383F31188BFF36F8FBFF3BC
:105610004F8F3B6200BFFEE73B68022B03D13B6B21
:10562000DB6B012B01D1012300E00023002B0AD109
:105630004FF0500383F31188BFF36F8FBFF34F8F89
:10564000FB6100BFFEE702F053FDEFF311824FF064
:10565000500383F31188BFF36F8FBFF34F8FBA618D
:105660007B61BB69FB623B6B9A6B3B6BDB6B9A426A
:1056700002D33B68022B2CD13B6B93F8453087F863
:105680002B303A68B968386B00F041FB97F92B3042
:10569000B3F1FF3F12D13B6B5B6A002B16D03B6B23
:1056A0002433184601F06AFA0346002B0ED07B68BB
:1056B000002B0BD07B6801221A6007E097F82B3093
:1056C0000133DBB25AB23B6B83F8452001237B6385
:1056D00001E000237B63FB6A3B613B6983F3118834
:1056E00000BF7B6B18463837BD4680BD80B58EB095
:1056F00000AF786039607B683B633B6B002B0AD15D
:105700004FF0500383F31188BFF36F8FBFF34F8FB8
:105710003B6200BFFEE73B6B1B6C002B0AD04FF0D7
:10572000500383F31188BFF36F8FBFF34F8FFB617B
:1057300000BFFEE73B6B1B68002B03D13B6B5B6834
:10574000002B01D1012300E00023002B0AD14FF0F0
:10575000500383F31188BFF36F8FBFF34F8FBB618B
:1057600000BFFEE702F0C4FCEFF311824FF05003DC
:1057700083F31188BFF36F8FBFF34F8F7A613B6163
:105780007B69FB623B6B9B6BBB623B6BDB6BBA6AFF
:105790009A422BD23B6B93F8453087F82730BB6A8F
:1057A0005A1C3B6B9A6397F92730B3F1FF3F12D134
:1057B0003B6B5B6A002B16D03B6B2433184601F021
:1057C000DDF90346002B0ED03B68002B0BD03B6865
:1057D00001221A6007E097F827300133DBB25AB292
:1057E0003B6B83F8452001237B6301E000237B634F
:1057F000FB6AFB60FB6883F3118800BF7B6B184674
:105800003837BD4680BD000080B58CB000AFF86071
:10581000B9607A600023FB62FB68BB62BB6A002B45
:105820000AD14FF0500383F31188BFF36F8FBFF39A
:105830004F8F3B6200BFFEE7BB68002B03D1BB6A02
:105840001B6C002B01D1012300E00023002B0AD1A7
:105850004FF0500383F31188BFF36F8FBFF34F8F67
:10586000FB6100BFFEE701F05DFB0346002B02D1A8
:105870007B68002B01D1012300E00023002B0AD11B
:105880004FF0500383F31188BFF36F8FBFF34F8F37
:10589000BB6100BFFEE702F069FBBB6A9B6B7B62EA
:1058A0007B6A002B1FD0B968B86A00F09AFA7B6A4D
:1058B0005A1EBB6A9A63BB6A1B69002B0FD0BB6A76
:1058C0001033184601F05AF90346002B07D03D4B20
:1058D0004FF080521A60BFF34F8FBFF36F8F02F00B
:1058E00075FB012369E07B68002B03D102F06EFB9E
:1058F000002362E0FB6A002B06D107F11003184673
:1059000001F09EF90123FB6202F060FB00F0DEFE75
:1059100002F02CFBBB6A93F844305BB2B3F1FF3F5B
:1059200003D1BB6A002283F84420BB6A93F8453058
:105930005BB2B3F1FF3F03D1BB6A002283F845207D
:1059400002F044FB3A1D07F110031146184601F01E
:105950008DF90346002B23D1B86A00F0BAFA03464A
:10596000002B17D0BB6A24337A681146184601F021
:10597000B5F8B86A00F05BFA00F0B6FE0346002BFB
:1059800089D1104B4FF080521A60BFF34F8FBFF395
:105990006F8F80E7B86A00F04AFA00F0A5FE7AE758
:1059A000B86A00F044FA00F09FFEB86A00F091FA7D
:1059B0000346002B3FF46FAF002318463037BD4637
:1059C00080BD00BF04ED00E080B58EB000AF786010
:1059D000396000237B637B68FB6200233B63FB6AC7
:1059E000002B0AD14FF0500383F31188BFF36F8F60
:1059F000BFF34F8F3B6200BFFEE7FB6A1B6C002BBF
:105A00000AD04FF0500383F31188BFF36F8FBFF3B9
:105A10004F8FFB6100BFFEE701F084FA0346002BC5
:105A200002D13B68002B01D1012300E00023002BB1
:105A30000AD14FF0500383F31188BFF36F8FBFF388
:105A40004F8FBB6100BFFEE702F090FAFB6A9B6BD1
:105A5000BB62BB6A002B24D0BB6A5A1EFB6A9A63E6
:105A6000FB6A1B68002B04D101F026FC0246FB6A8E
:105A70005A60FB6A1B69002B0FD0FB6A1033184673
:105A800001F07CF80346002B07D0544B4FF08052B6
:105A90001A60BFF34F8FBFF36F8F02F097FA0123A5
:105AA00097E03B68002B11D13B6B002B0AD04FF0E5
:105AB000500383F31188BFF36F8FBFF34F8F7B6168
:105AC00000BFFEE702F082FA002382E07B6B002B2E
:105AD00006D107F10C03184601F0B2F801237B63ED
